:03000000020537BF
:0C053700787FE4F6D8FD75816602057E31
:0908E80062626262620025640094
:10089000043B000000000222000002240001013A93
:0508A00000023F000012
:1005C300E47B0AFAF9F8AF3EAE3DAD3CAC3B120713
:1005D3000AAE02AF038E088F09E47B0AFAF9F8AF7B
:1005E3003EAE3DAD3CAC3B12070AE47B0AFAF9F898
:1005F30012070AAE02AF038E0A8F0BE47B64FAF98B
:10060300F8AF3EAE3DAD3CAC3B12070AE47B0AFAC1
:10061300F9F812070AAE02AF038E0C8F0DE47BE8E4
:100623007A03F9F8AF3EAE3DAD3CAC3B12070AEF9F
:100633002430F541E50D2430F542E50B2430F54334
:03064300E4F54497
:010646002291
:10082100E4FDFCC3ED9FEC9E5015E4FBFA0BBB000D
:0F083100010AEB64034A70F50DBD00010C80E471
:010840002295
:10085E00EF1FAA0670011ED39400EA9400400BE429
:0A086E00FDEDC3947D50E90D80F705
:01087800225D
:0B08DD00758ACD758CF8D2A9D2AF222D
:1008BA00D2A7D2A6E4F522F523F53EF53DF53CF59F
:0208CA003B22CF
:0C000E00D2A77F037E0012085EC2A7226A
:10064700D28C20A6FDC28CAD8AAF8CEFFE7C00E475
:100657002DFFEC3EAB07FA74332BFB74073AFAAE67
:1006670022AF237C037DE8120393EF2BFFEE3AFEC4
:10067700E48F3E8E3DF53CF53B758ACD758CF87F52
:100687001EFE12085EE47FA77E0DFDFCAB3EAA3D71
:10069700A93CA83B1203A5E47B207A4EF9F8120780
:0906A7000A8F3E8E3D8D3C8C3B18
:0106B0002227
:1006B100E4F545F5461208DD1208A61208797F30E7
:1006C1007E7512082175BB70E4F5C0D28C7BFF7A70
:1006D1000879E81207FCE5FAD394DC4003E4F5FA63
:1006E100E5EAD394DC40EFE4F5EA7556FF75570867
:1006F1007558EE85FA59FB7A00794912007A7B0028
:090701007A0079491207FC80CD51
:03000B0002074E9B
:10074E00C0E0C0D0C28D758ACD758CF80523E52327
:10075E0070020522C2C4B4E819E522B40314D2C44F
:10076E00740A25EAF5EA740A25FAF5FA7522007577
:07077E002300D0D0D0E032CF
:03001B000208CC0C
:1008CC00C0E0C28F0525E52570020524C2C4D0E026
:0108DC0032E9
:10087900E4F5D8F5D9F5E9F5F9F5F275DA4275EA4D
:070889004075FA40D2DE22A7
:1007AE00EFFDAEFAEE2DFDE433FCD3ED94FAEC64DE
:1007BE00809480400775FAFA75EAFA22EF25FAF569
:0707CE00FAEF25EAF5EA222B
:10084100C3E5FA9FC39400500775FA0A75EA0A22B4
:0D085100C3E5FA9FF5FAC3E5EA9FF5EA2238
:10078500EF24FE600F1460131460172403701975AD
:10079500FA78801175FA7F75EABF2275FA7F75EAD6
:0907A500102275FAFF75EA3F22EB
:080003008F993099FDC299228A
:1007FC008B538A548955AB53AA54A95512037A606A
:10080C00130555E5557002055414F912037AFF12BD
:05081C00000380E22250
:1008A600E4F587759850758921758BFA758DFAD29E
:0408B6008ED2AF220D
:100543000206B1E493A3F8E493A34003F68001F217
:1005530008DFF48029E493A3F85407240CC8C333B9
:10056300C4540F4420C8834004F456800146F6DF88
:10057300E4800B0102040810204080900890E47E80
:10058300019360BCA3FF543F30E509541FFEE4937D
:10059300A360010ECF54C025E060A840B8E493A344
:1005A300FAE493A3F8E493A3C8C582C8CAC583CA6F
:1005B300F0A3C8C582C8CAC583CADFE9DEE780BE27
:0108A5000052
:10037A00BB010689828A83E0225002E722BBFE0281
:09038A00E32289828A83E49322B4
:10039300EF8DF0A4A8F0CF8CF0A428CE8DF0A42E7E
:0203A300FE2238
:1003A500E88FF0A4CC8BF0A42CFCE98EF0A42CFCF7
:1003B5008AF0EDA42CFCEA8EF0A4CDA8F08BF0A475
:1003C5002DCC3825F0FDE98FF0A42CCD35F0FCEBD4
:1003D5008EF0A4FEA9F0EB8FF0A4CFC5F02ECD3999
:0F03E500FEE43CFCEAA42DCE35F0FDE43CFC2206
:10070A00C2D5E830E70FB2D5E4C39BFBE49AFAE41A
:10071A0099F9E498F8EC30E717B2D51207401204B9
:10072A006FE4C39BFBE49AFAE499F9E498F880032E
:10073A0012046F30D50DE4C39FFFE49EFEE49DFDD5
:04074A00E49CFC220D
:10001E00E5622456F8E605622278533007027856D8
:10002E00E475F00112050102037A2000EB7F2ED257
:10003E00008018EF540F2490D43440D4FF30040BBA
:10004E00EF24BFB41A0050032461FFE5636002156C
:10005E00630566E5667002056530070D7853E47535
:10006E00F001120501EF0204210207D57403D20735
:10007E008003E4C207F5628B538A548955E4F56315
:10008E00F565F566E56360077F2012005980F5750A
:10009E0064FFC201C200C202C203C205C206C20888
:1000AE00120027FF700D3007057F0012006AAF6641
:1000BE00AE6522B4255FC2D5C204120027FF24D03C
:1000CE00B40A00501A75F00A786330D50508B6FFE9
:1000DE000106C6A426F620D5047002D20380D924C8
:1000EE00CFB41A00EF5004C2E5D20402026AD20164
:1000FE0080C6D20080C0D20280BCD2D580BAD205D2
:10010E0080B47F201200592002077401B5630040AD
:10011E00F112001EFF120059020092D208D2068080
:10012E009512001EFB12001EFA12001EF94A4B70A9
:10013E0006793B7A037BFF20022EE563602A7E0060
:10014E008E827583001203F460060EEE656470F005
:10015E00C2D5EBC0E0EAC0E0E9C0E0EE1202B1D0D9
:10016E00E0F9D0E0FAD0E0FB12037AFF60AAEBC010
:10017E00E0EAC0E0E9C0E0120059D0E02401F9D075
:10018E00E03400FAD0E0FBE5640460DCD564D9808D
:10019E00877BFF7A0279ADD202809C79108002793A
:1001AE0008C206C2088008D2D5790A8004790AC22C
:1001BE00D5E564047002F564E4FAFDFEFF12001E3C
:1001CE00FC7B0820011312001EFD7B1030000A126A
:1001DE00001EFE12001EFF7B20EC3382D592D550FE
:1001EE0013C3E43000069FFFE49EFEE42001039D4E
:1001FE00FDE49CFCE4CBF8C201EC700CCFCECDCC70
:10020E00E824F8F870F38017C3EF33FFEE33FEEDFA
:10021E0033FDEC33FCEB33FB994002FB0FD8E9EBDB
:10022E00300105F8D0E0C448B201C0E00AEC4D4EF2
:10023E004F78207B0070C2EAB5640040BCC0E0126B
:10024E0002B3D0F0D0E0200104C4C0E0C4B201C0BB
:10025E00F0120042D0F0D5F0EB020092120511011F
:10026E002F5301A95801004C00FC4201AD4F01B5BE
:0F027E004401B54901154301BB55019F46019F3E
:10028D0045019F47035B5001042D01082E012B2BC7
:10029D00010C2301292003442A00C4480000012336
:1002AD003F3F3F00790AA2D5200314300509B9104C
:1002BD00020404B9080104A2D5200602500104204D
:1002CD0002689202B563005034C0E07F20300319FC
:1002DD007F30A20272067205500F12030AC202C2CB
:1002ED0006C205C2087F30800F300503E9C0E01259
:1002FD000059300503D0E0F9D0E0B563CC300517D7
:10030D007F30B9100C1200597F583004077F788068
:10031D0003B908031200593002057F2D0200597FE1
:10032D00202008F87F2B2006F322920280CF286E22
:10033D00756C6C2900D20112001E3001F8C20178D3
:10034D006330D50108F60200C42D50434958120000
:10035D001E2403B405004001E49003569312004A95
:0D036D00743A12004AD2037563040201A91C
:1003F400BB010CE58229F582E5833AF583E02250BE
:1004040006E92582F8E622BBFE06E92582F8E22207
:0D041400E58229F582E5833AF583E4932221
:10042100BB010689828A83F0225002F722BBFE01BA
:02043100F322B4
:1004330075F008758200EF2FFFEE33FECD33CDCC80
:1004430033CCC58233C5829BED9AEC99E582984003
:100453000CF582EE9BFEED9AFDEC99FC0FD5F0D6E0
:10046300E4CEFBE4CDFAE4CCF9A88222B800C1B90A
:100473000059BA002DEC8BF084CFCECDFCE5F0CB48
:10048300F97818EF2FFFEE33FEED33FDEC33FCEB81
:1004930033FB10D703994004EB99FB0FD8E5E4F93C
:1004A300FA227818EF2FFFEE33FEED33FDEC33FC29
:1004B300C933C910D7059BE99A4007EC9BFCE99A1D
:1004C300F90FD8E0E4C9FAE4CCFB2275F010EF2F62
:1004D300FFEE33FEED33FDCC33CCC833C810D70762
:1004E3009BEC9AE899400AED9BFDEC9AFCE899F89D
:0E04F3000FD5F0DAE4CDFBE4CCFAE4C8F92230
:10050100FAE6FB0808E6F925F0F618E6CA3AF622FB
:10051100D083D082F8E4937012740193700DA3A379
:1005210093F8740193F5828883E47374029368608D
:06053100EFA3A3A380DF8D
:1007D500EFB40A07740D1207E0740A309811A8994E
:1007E500B8130CC2983098FDA899C298B811F63084
:0707F50099FDC299F599225C
:00000001FF
