:030000000205E90D
:0C05E900787FE4F6D8FD75813A020630F8
:10083E0025640064697374616E6365203D20000A4F
:01084E0000A9
:060876000409000000006F
:080003008F993099FDC299228A
:1007A7008B228A238924AB22AA23A92412036A60F5
:1007B700130524E5247002052314F912036AFF12B6
:0507C700000380E222A6
:10082A00E4F587759850758921758BFA758DFAD21A
:04083A008ED2AF2289
:10067500E47B0AFAF9F8AF0CAE0BAD0AAC09120629
:10068500F9AE02AF038E228F23E47B0AFAF9F8AFA5
:100695000CAE0BAD0AAC091206F9E47B0AFAF9F8BF
:1006A5001206F9AE02AF038E248F25E47B64FAF9B6
:1006B500F8AF0CAE0BAD0AAC091206F9E47B0AFAE9
:1006C500F9F81206F9AE02AF038E268F27E47BE810
:1006D5007A03F9F8AF0CAE0BAD0AAC091206F9EFC7
:1006E5002430F50DE5272430F50EE5252430F50FEA
:0306F500E4F51019
:0106F80022DF
:1007EF00E4FDFCC3ED9FEC9E5015E4FBFA0BBB0040
:0F07FF00010AEB64034A70F50DBD00010C80E4A4
:01080E0022C7
:10080F00EF1FAA0670011ED39400EA9400400BE478
:0A081F00FDEDC3947D50E90D80F754
:0108290022AC
:0B086B00758ACD758CF8D2A9D2AF229F
:10084F00D2A7D2A6E4F508F50CF50BF50AF50922A7
:0C085F00D2A77F037E0012080FC2A72260
:10055300D28C20A6FDC28CAD8AAF8CEFFE7C00E46A
:100563002DFFEC3EAB07FA74332BFB74073AFAAF5B
:10057300087E007C037DE8120383EF2BFFEE3AFE37
:10058300E48F0C8E0BF50AF509758ACD758CF87F0F
:100593001EFE12080FE47FA77E0DFDFCAB0CAA0B19
:1005A300A90AA809120395E47B207A4EF9F81206EA
:1005B300F98F0C8E0B8D0A8C097E007F057D007BE5
:1005C300007A0079221203E4752AFF752B08752C33
:1005D3003E850C30850B2F850A2E85092D7B007AED
:0605E30000792202006A0B
:10073D0012086B12084F12082A7F307E751207EFD0
:10074D0012085F30A6FD1205531206757BFF7A085D
:10075D0079411207A77B007A00790D1207A77BFF5D
:10076D007A08794D1207A712084F7F0A7E001208EA
:03077D000F80CD1D
:03000B000207CC1D
:1007CC00C0E0C0D0C28D758ACD758CF80508E508DF
:1007DC00B4240BC28C758ACD758CF8750800D0D0FA
:0307EC00D0E03228
:1005F50002073DE493A3F8E493A34003F68001F2D8
:1006050008DFF48029E493A3F85407240CC8C33306
:10061500C4540F4420C8834004F456800146F6DFD5
:10062500E4800B0102040810204080900876E47EE7
:10063500019360BCA3FF543F30E509541FFEE493CA
:10064500A360010ECF54C025E060A840B8E493A391
:10065500FAE493A3F8E493A3C8C582C8CAC583CABC
:10066500F0A3C8C582C8CAC583CADFE9DEE780BE74
:01087C00007B
:10036A00BB010689828A83E0225002E722BBFE0291
:09037A00E32289828A83E49322C4
:10038300EF8DF0A4A8F0CF8CF0A428CE8DF0A42E8E
:02039300FE2248
:10039500E88FF0A4CC8BF0A42CFCE98EF0A42CFC07
:1003A5008AF0EDA42CFCEA8EF0A4CDA8F08BF0A485
:1003B5002DCC3825F0FDE98FF0A42CCD35F0FCEBE4
:1003C5008EF0A4FEA9F0EB8FF0A4CFC5F02ECD39A9
:0F03D500FEE43CFCEAA42DCE35F0FDE43CFC2216
:1006F900C2D5E830E70FB2D5E4C39BFBE49AFAE42C
:1007090099F9E498F8EC30E717B2D512072F1204DB
:100719008BE4C39BFBE49AFAE499F9E498F8800323
:1007290012048B30D50DE4C39FFFE49EFEE49DFDCA
:04073900E49CFC221E
:10000E00E536242AF8E60536227827300702782AC4
:10001E00E475F00112051D02036A2000EB7F2ED25B
:10002E00008018EF540F2490D43440D4FF30040BCA
:10003E00EF24BFB41A0050032461FFE537600215A8
:10004E0037053AE53A7002053930070D7827E47521
:10005E00F00112051DEF02043D0207807403D20762
:10006E008003E4C207F5368B278A288929E4F53701
:10007E00F539F53AE53760077F2012004980F575AE
:10008E0038FFC201C200C202C203C205C206C208C4
:10009E00120017FF700D3007057F0012005AAF3A9D
:1000AE00AE3922B4255FC2D5C204120017FF24D088
:1000BE00B40A00501A75F00A783730D50508B6FF25
:1000CE000106C6A426F620D5047002D20380D924D8
:1000DE00CFB41A00EF5004C2E5D20402025AD20184
:1000EE0080C6D20080C0D20280BCD2D580BAD205E2
:1000FE0080B47F201200492002077401B5370040FA
:10010E00F112000EFF120049020082D208D20680C0
:10011E009512000EFB12000EFA12000EF94A4B70E9
:10012E0006792B7A037BFF20022EE537602A7E00AC
:10013E008E8275830012041060060EEE653870F024
:10014E00C2D5EBC0E0EAC0E0E9C0E0EE1202A1D0F9
:10015E00E0F9D0E0FAD0E0FB12036AFF60AAEBC030
:10016E00E0EAC0E0E9C0E0120049D0E02401F9D095
:10017E00E03400FAD0E0FBE5380460DCD538D980F5
:10018E00877BFF7A02799DD202809C79108002795A
:10019E0008C206C2088008D2D5790A8004790AC23C
:1001AE00D5E538047002F538E4FAFDFEFF12000EB4
:1001BE00FC7B0820011312000EFD7B1030000A128A
:1001CE00000EFE12000EFF7B20EC3382D592D5502E
:1001DE0013C3E43000069FFFE49EFEE42001039D5E
:1001EE00FDE49CFCE4CBF8C201EC700CCFCECDCC80
:1001FE00E824F8F870F38017C3EF33FFEE33FEED0B
:10020E0033FDEC33FCEB33FB994002FB0FD8E9EBEB
:10021E00300105F8D0E0C448B201C0E00AEC4D4E02
:10022E004F78207B0070C2EAB5380040BCC0E012A7
:10023E0002A3D0F0D0E0200104C4C0E0C4B201C0DB
:10024E00F0120032D0F0D5F0EB02008212052D0133
:10025E001F5301995800F04C00EC42019D4F01A52F
:0F026E004401A54901054301AB55018F46018F9E
:10027D0045018F47034B5000F42D00F82E011B2B29
:10028D0000FC2301192003342A00B4480000011397
:10029D003F3F3F00790AA2D5200314300509B9105C
:1002AD00020404B9080104A2D5200602500104205D
:1002BD0002689202B537005034C0E07F2030031938
:1002CD007F30A20272067205500F1202FAC202C2EC
:1002DD0006C205C2087F30800F300503E9C0E01269
:1002ED000049300503D0E0F9D0E0B537CC30051723
:1002FD007F30B9100C1200497F583004077F788089
:10030D0003B908031200493002057F2D0200497F11
:10031D00202008F87F2B2006F322920280CF286E32
:10032D00756C6C2900D20112000E3001F8C20178F3
:10033D003730D50108F60200B42D5043495812004C
:10034D000E2403B405004001E49003469312003AD5
:0D035D00743A12003AD20375370402019978
:1003E400EF4E6012EF60010EEDBB010B89828A8330
:1003F400F0A3DFFCDEFA2289F05007F709DFFCA93D
:0C040400F022BBFEFCF309DFFCA9F02293
:10041000BB010CE58229F582E5833AF583E02250A1
:1004200006E92582F8E622BBFE06E92582F8E222EB
:0D043000E58229F582E5833AF583E4932205
:10043D00BB010689828A83F0225002F722BBFE019E
:02044D00F32298
:10044F0075F008758200EF2FFFEE33FECD33CDCC64
:10045F0033CCC58233C5829BED9AEC99E5829840E7
:10046F000CF582EE9BFEED9AFDEC99FC0FD5F0D6C4
:10047F00E4CEFBE4CDFAE4CCF9A88222B800C1B9EE
:10048F000059BA002DEC8BF084CFCECDFCE5F0CB2C
:10049F00F97818EF2FFFEE33FEED33FDEC33FCEB65
:1004AF0033FB10D703994004EB99FB0FD8E5E4F920
:1004BF00FA227818EF2FFFEE33FEED33FDEC33FC0D
:1004CF00C933C910D7059BE99A4007EC9BFCE99A01
:1004DF00F90FD8E0E4C9FAE4CCFB2275F010EF2F46
:1004EF00FFEE33FEED33FDCC33CCC833C810D70746
:1004FF009BEC9AE899400AED9BFDEC9AFCE899F881
:0E050F000FD5F0DAE4CDFBE4CCFAE4C8F92213
:10051D00FAE6FB0808E6F925F0F618E6CA3AF622DF
:10052D00D083D082F8E4937012740193700DA3A35D
:10053D0093F8740193F5828883E473740293686071
:06054D00EFA3A3A380DF71
:10078000EFB40A07740D12078B740A309811A899F8
:10079000B8130CC2983098FDA899C298B811F630D9
:0707A00099FDC299F59922B1
:00000001FF
