:03000000020156A4
:0C015600787FE4F6D8FD75811602019D4B
:0E04590064697374616E6365203D20000A00C3
:06047E000409000000006B
:1001E200E47B0AFAF9F8AF0CAE0BAD0AAC091202C5
:1001F200D0AE02AF038E118F12E47B0AFAF9F8AF88
:100202000CAE0BAD0AAC091202D0E47B0AFAF9F883
:100212001202D0AE02AF038E138F14E47B64FAF99C
:10022200F8AF0CAE0BAD0AAC091202D0E47B0AFAAD
:10023200F9F81202D0AE02AF038E158F16E47BE8F6
:100242007A03F9F8AF0CAE0BAD0AAC091202D0EF8B
:100252002430F50DE5162430F50EE5142430F50FA3
:03026200E4F510B0
:010265002276
:1003C600E4FDFCC3ED9FEC9E5015E4FBFA0BBB006D
:0F03D600010AEB64034A70F50DBD00010C80E4D1
:0103E50022F5
:10040300EF1FAA0670011ED39400EA9400400BE488
:0A041300FDEDC3947D50E90D80F764
:01041D0022BC
:0B047300758ACD758CF8D2A9D2AF229B
:10044900D2A7D2A6E4F508F50CF50BF50AF50922B1
:0C046700D2A77F037E00120403C2A7226C
:10026600D28C20A6FDC28CAD8AAF8CEFFE7C00E45A
:100276002DFFEC3EAB07FA74332BFB74073AFAAF4B
:10028600087E007C037DE8120027EF2BFFEE3AFE86
:10029600E48F0C8E0BF50AF509758ACD758CF87FFF
:1002A6001EFE120403E47FA77E0DFDFCAB0CAA0B19
:1002B600A90AA809120039E47B207A4EF9F812023D
:0902C600D08F0C8E0B8D0A8C09FF
:0102CF00220C
:100314001204731204491204357F307E751203C629
:1003240012046730A6FD1202661201E27BFF7A0412
:10033400795912037E7B007A00790D12037E7BFFCC
:100344007A04796512037E1204497F0A7E0012043E
:030354000380CD56
:03000B000203A34A
:1003A300C0E0C0D0C28D758ACD758CF80508E5080C
:1003B300B4240BC28C758ACD758CF8750800D0D027
:0303C300D0E03255
:10041E00E4F5D8F5D9F5E9F5F9F5F275DA4275EAAC
:07042E004075FA40D2DE2206
:10035700EFFDAEFAEE2DFDE433FCD3ED94FAEC6439
:10036700809480400775FAFA75EAFA22EF25FAF5C4
:07037700FAEF25EAF5EA2286
:1003E600C3E5FA9FC39400500775FA0A75EA0A2214
:0D03F600C3E5FA9FF5FAC3E5EA9FF5EA2298
:080003008F993099FDC299228A
:10037E008B118A128913AB11AA12A91312000E60E7
:10038E00130513E5137002051214F912000EFF1275
:05039E00000380E222D3
:10043500E4F587759850758921758BFA758DFAD213
:040445008ED2AF2282
:10016200020314E493A3F8E493A34003F68001F29C
:1001720008DFF48029E493A3F85407240CC8C3339E
:10018200C4540F4420C8834004F456800146F6DF6D
:10019200E4800B010204081020408090047EE47E7B
:1001A200019360BCA3FF543F30E509541FFEE49362
:1001B200A360010ECF54C025E060A840B8E493A329
:1001C200FAE493A3F8E493A3C8C582C8CAC583CA54
:1001D200F0A3C8C582C8CAC583CADFE9DEE780BE0C
:010484000077
:10000E00BB010689828A83E0225002E722BBFE02F0
:09001E00E32289828A83E4932223
:10002700EF8DF0A4A8F0CF8CF0A428CE8DF0A42EED
:02003700FE22A7
:10003900E88FF0A4CC8BF0A42CFCE98EF0A42CFC66
:100049008AF0EDA42CFCEA8EF0A4CDA8F08BF0A4E4
:100059002DCC3825F0FDE98FF0A42CCD35F0FCEB43
:100069008EF0A4FEA9F0EB8FF0A4CFC5F02ECD3908
:0F007900FEE43CFCEAA42DCE35F0FDE43CFC2275
:1002D000C2D5E830E70FB2D5E4C39BFBE49AFAE459
:1002E00099F9E498F8EC30E717B2D512030612003A
:1002F000C4E4C39BFBE49AFAE499F9E498F8800318
:100300001200C430D50DE4C39FFFE49EFEE49DFDC2
:04031000E49CFC224B
:1000880075F008758200EF2FFFEE33FECD33CDCC2F
:1000980033CCC58233C5829BED9AEC99E5829840B2
:1000A8000CF582EE9BFEED9AFDEC99FC0FD5F0D68F
:1000B800E4CEFBE4CDFAE4CCF9A88222B800C1B9B9
:1000C8000059BA002DEC8BF084CFCECDFCE5F0CBF7
:1000D800F97818EF2FFFEE33FEED33FDEC33FCEB30
:1000E80033FB10D703994004EB99FB0FD8E5E4F9EB
:1000F800FA227818EF2FFFEE33FEED33FDEC33FCD8
:10010800C933C910D7059BE99A4007EC9BFCE99ACB
:10011800F90FD8E0E4C9FAE4CCFB2275F010EF2F10
:10012800FFEE33FEED33FDCC33CCC833C810D70710
:100138009BEC9AE899400AED9BFDEC9AFCE899F84B
:0E0148000FD5F0DAE4CDFBE4CCFAE4C8F922DE
:00000001FF
