:030000000202E316
:0C02E300787FE4F6D8FD75813202032A12
:0E05F60064697374616E6365203D20000A0025
:1005D30004210000000002090001021F000002259F
:0205E300000016
:10036F00E47B0AFAF9F8AF24AE23AD22AC211204D4
:10037F005DAE02AF038E2D8F2EE47B0AFAF9F8AF34
:10038F0024AE23AD22AC2112045DE47B0AFAF9F806
:10039F0012045DAE02AF038E2F8F30E47B64FAF947
:1003AF00F8AF24AE23AD22AC2112045DE47B0AFA30
:1003BF00F9F812045DAE02AF038E318F32E47BE8A1
:1003CF007A03F9F8AF24AE23AD22AC2112045DEF0E
:1003DF002430F527E5322430F528E5302430F5298F
:0303EF00E4F52A08
:0103F20022E8
:10055000E4FDFCC3ED9FEC9E5015E4FBFA0BBB00E1
:0F056000010AEB64034A70F50DBD00010C80E445
:01056F002269
:10058D00EF1FAA0670011ED39400EA9400400BE4FD
:0A059D00FDEDC3947D50E90D80F7D9
:0105A7002231
:0B061000758ACD758CF8D2A9D2AF22FC
:1005E600D2A7D2A6E4F508F524F523F522F52122B3
:0C060400D2A77F037E0012058DC2A72242
:1003F300D28C20A6FDC28CAD8AAF8CEFFE7C00E4CC
:100403002DFFEC3EAB07FA74332BFB74073AFAAFBC
:10041300087E007C037DE8120027EF2BFFEE3AFEF7
:10042300E48F248E23F522F521758ACD758CF87F10
:100433001EFE12058DE47FA77E0DFDFCAB24AA23CF
:10044300A922A82112006FE47B207A4EF9F8120446
:090453005D8F248E238D228C2183
:01045C00227D
:1001F700E4F52BF52C1206101205E61205BF7F3029
:100207007E7512055012060430A6FD1203F3AF24C3
:100217000526E526700205251425E0240BF8A623FC
:1002270008A6077F107E2712058DE526640A452557
:1002370060030202DDE5202405FFE4351FFE7C0094
:100247007D1E1200398C1F8D20E4F524F523F5223D
:10025700F521F525F526FBFAEB25E0240BF8E6FE5C
:1002670008E6FFE4FCFDE5242FF524E5233EF5230E
:10027700ED3522F522EC3521F5210BBB00010AEB08
:10028700640A4A70D3AF24AE23AD22AC21E47B0AC3
:10029700FAF9F812045D8F248E238D228C21E47FD6
:1002A70028FEFDFCAB24AA23A922A821D31200BE55
:1002B700400685232B85242C12036F7BFF7A057953
:1002C700F612052B7B007A00792712052B7BFF7A24
:0C02D70006790212052B1205E602020C4B
:03000B000204A14B
:1004A100C0E0C0D0C28D758ACD758CF80508050AEB
:1004B100E50A70020509C293B5200DE509B51F08CB
:1004C100750900750A00D293E508B4240BC28C7536
:0D04D1008ACD758CF8750800D0D0D0E032CF
:1005A800E4F5D8F5D9F5E9F5F9F5F275DA4275EA21
:0705B8004075FA40D2DE227B
:1004DE00EFFDAEFAEE2DFDE433FCD3ED94FAEC64B1
:1004EE00809480400775FAFA75EAFA22EF25FAF53C
:0704FE00FAEF25EAF5EA22FE
:10057000C3E5FA9FC39400500775FA0A75EA0A2288
:0D058000C3E5FA9FF5FAC3E5EA9FF5EA220C
:10050500EF24FE600C146010146004240370168040
:100515000E75FABF75EABF2275FA3F75EA0A2275AC
:06052500FA3F75EA3F22D7
:080003008F993099FDC299228A
:10052B008B2D8A2E892FAB2DAA2EA92F12000E6090
:10053B0013052FE52F7002052E14F912000EFF1272
:05054B00000380E22224
:1005BF00E4F587759850758921758BFA758DFAD288
:0405CF008ED2AF22F7
:1002EF000201F7E493A3F8E493A34003F68001F22D
:1002FF0008DFF48029E493A3F85407240CC8C33310
:10030F00C4540F4420C8834004F456800146F6DFDE
:10031F00E4800B01020408102040809005D3E47E96
:10032F00019360BCA3FF543F30E509541FFEE493D3
:10033F00A360010ECF54C025E060A840B8E493A39A
:10034F00FAE493A3F8E493A3C8C582C8CAC583CAC5
:10035F00F0A3C8C582C8CAC583CADFE9DEE780BE7D
:0105E5000015
:10000E00BB010689828A83E0225002E722BBFE02F0
:09001E00E32289828A83E4932223
:10002700EF8DF0A4A8F0CF8CF0A428CE8DF0A42EED
:02003700FE22A7
:10003900C2D5EC30E709B2D5E4C39DFDE49CFCEEE2
:1000490030E715B2D5E4C39FFFE49EFE1200D4C386
:10005900E49DFDE49CFC80031200D430D507C3E481
:060069009FFFE49EFE2251
:10006F00E88FF0A4CC8BF0A42CFCE98EF0A42CFC30
:10007F008AF0EDA42CFCEA8EF0A4CDA8F08BF0A4AE
:10008F002DCC3825F0FDE98FF0A42CCD35F0FCEB0D
:10009F008EF0A4FEA9F0EB8FF0A4CFC5F02ECD39D2
:0F00AF00FEE43CFCEAA42DCE35F0FDE43CFC223F
:10045D00C2D5E830E70FB2D5E4C39BFBE49AFAE4CA
:10046D0099F9E498F8EC30E717B2D512049312011C
:10047D0065E4C39BFBE49AFAE499F9E498F88003E8
:10048D0012016530D50DE4C39FFFE49EFEE49DFD92
:04049D00E49CFC22BD
:1000BE00EB9FF5F0EA9E42F0E99D42F0EC6480C8B9
:0600CE0064809845F02259
:1000D400BC000BBE0029EF8DF084FFADF022E4CC10
:1000E400F875F008EF2FFFEE33FEEC33FCEE9DECD9
:1000F400984005FCEE9DFE0FD5F0E9E4CEFD22ED1F
:10010400F8F5F0EE8420D21CFEADF075F008EF2F68
:10011400FFED33FD4007985006D5F0F222C398FD59
:050124000FD5F0EA22F6
:1001290075F008758200EF2FFFEE33FECD33CDCC8D
:1001390033CCC58233C5829BED9AEC99E582984010
:100149000CF582EE9BFEED9AFDEC99FC0FD5F0D6ED
:10015900E4CEFBE4CDFAE4CCF9A88222B800C1B917
:100169000059BA002DEC8BF084CFCECDFCE5F0CB55
:10017900F97818EF2FFFEE33FEED33FDEC33FCEB8E
:1001890033FB10D703994004EB99FB0FD8E5E4F949
:10019900FA227818EF2FFFEE33FEED33FDEC33FC36
:1001A900C933C910D7059BE99A4007EC9BFCE99A2A
:1001B900F90FD8E0E4C9FAE4CCFB2275F010EF2F6F
:1001C900FFEE33FEED33FDCC33CCC833C810D7076F
:1001D9009BEC9AE899400AED9BFDEC9AFCE899F8AA
:0E01E9000FD5F0DAE4CDFBE4CCFAE4C8F9223D
:00000001FF
